:0800000022C0D7C0FDCFFCCFE8
:10000800FBCFFACFF9CFF8CFF7CFF6CFF5CFF4CFB4
:10001800F3CFF2CFF1CFF0CFEFCFEECFEDCFECCFE4
:10002800EBCFEACFE9CFE8CFE7CFE6CF070600006E
:100038002233445501000500000238000000F894FE
:10004800EE27EFBBF1E0F5BFE5BF8DE0A2E0BB27EF
:10005800ED938A95E9F780E094E0A0E0B1E0ED93B4
:100068000197E9F7EEE3F0E085919591009761F04B
:10007800A591B59105901590BF01F00105900D92DD
:100088000197E1F7FB01F0CFE0E0EEBBEFEFEDBF4A
:10009800E4E0EEBFC0E0D2E0D6C0AA931A93299854
:1000A800AA81A3D11E2FA981A0D1299AE12F188155
:1000B80023960895AA931A932998A98196D1A0E026
:1000C80094D11E2F299A188122960895AA931A93DB
:1000D8002998AC818AD110E0E9811E1748F4AA81D9
:1000E800BB81EE27A10FBE1FAC917FD11F5FF4CF5C
:1000F800299A1881259608951A932998A1E675D109
:1001080010E0103268F4E12FF0E0EB5DFD4FFF9353
:10011800EF93A0E06AD1AF91BF91EC931F5FF1CF4D
:10012800299A19910895E0E2EA93ADE0B6DFA1E0DB
:10013800B0E064D1E0E3EA93E0E0F2E0FA93EA9316
:10014800A5E0C4DFEAE2EA93E0E0F2E0FA93EA939A
:10015800A5E0BCDFE1E2EA93A1E09FDFE2E2EA93F7
:10016800A1E09BDFE4E2EA93AFE397DFE5E2EA93FD
:10017800A8E693DFE6E2EA93A6E08FDFEDE3EA93F1
:10018800A6E08BDFECE3EA93A1E087DFE1E3EA9303
:10019800A0E283DFE0E2EA93A0E08CDFE260AE2F2A
:1001A8007CDFAAE0B0E02AD108950A921A92FA9266
:1001B8006A937A938A939A93AA93BA93EA93FA934F
:1001C800EFB7EA931A93E7E2EA93A0E766DFE077EE
:1001D8001E2FF0E0E031A0E0FA0719F4A1EE05D1F6
:1001E80012C0E034A0E0FA0711F486DF0CC0E03654
:1001F800A0E0FA0741F480DFA0912502A13011F4B4
:100208005B9A01C05B9810932402E0914502E09349
:100218002302E8EAEA93E5E0F2E0FA93EA93A0E23F
:1002280055DFE0E0E09345021991E991EFBFF991BC
:10023800E991B991A9919991899179916991F990E7
:10024800199009901895E0E8E0936100E0E0E093E8
:100258006100EFE2E4B9E2E1E5B9E0E0E7B9E8B965
:10026800EBEFEAB9E4E0EBB9E0E0E4BDE5BDE6BDFB
:10027800E7BDE8BDE0938000E0938100E09385004E
:10028800E0938400E0938700E0938600E093890080
:10029800E0938800E0938B00E0938A00E093B60037
:1002A800E093B000E093B100E093B200E093B300B4
:1002B800E093B400E0936E00E0936F00E093700069
:1002C800E2E0E0936900E1E0EDBBECBBE0E0E09345
:1002D8006800E093C100E0E8E0BFE0E0E0937F0061
:1002E800EFE3E0937E00E7ECE0937C00E7E8E0933F
:1002F8007A00E0E0E0937B00E0E5ECBDE1E0EDBDF5
:10030800E0E0E093BC00A4E6B0E078D010E040E084
:1003180050E000E0E0E0E0932302E0E6E09324020E
:1003280002DFE8EAEA93E5E0F2E0FA93EA93A0E272
:10033800CDDE2A9AE4E3F0E0E491E06CE0937C00FF
:10034800E0917A00E064E0937A007894E0917A0092
:10035800E07109F448C0E0917A00E061E0937A0026
:10036800E0917800F09179004E0F5F1F1F5F163003
:10037800A9F5E02FE295E07FEE0FEE0FE07C2E2F3F
:100388000F5F033009F400E0E02FF0E0EC5CFF4F72
:10039800E491E06CE0937C00E0917A00E064E09303
:1003A8007A00342F252BF894E0914502F0E0EB5FBA
:1003B800FD4F3083E0914502F0E0EA5FFD4F208376
:1003C800A0914502AE3128F4E0914502EE5FE0933A
:1003D8004502789440E050E010E005C0E0917A00D2
:1003E800E064E0937A00B2CFFFCFAA93E881EEBD34
:1003F800EDB5E7FFFDCFEEB521960895109639F0DB
:10040800A89580E092E10197F1F71197C9F708954F
:00000001FF
